{
  "contractName": "ProductVerification",
  "abi": [
    {
      "inputs": [],
      "stateMutability": "nonpayable",
      "type": "constructor"
    },
    {
      "anonymous": false,
      "inputs": [
        {
          "indexed": false,
          "internalType": "uint256",
          "name": "productId",
          "type": "uint256"
        },
        {
          "indexed": false,
          "internalType": "string",
          "name": "productName",
          "type": "string"
        }
      ],
      "name": "ProductAdded",
      "type": "event"
    },
    {
      "anonymous": false,
      "inputs": [
        {
          "indexed": false,
          "internalType": "address",
          "name": "user",
          "type": "address"
        }
      ],
      "name": "UserAdded",
      "type": "event"
    },
    {
      "anonymous": false,
      "inputs": [
        {
          "indexed": false,
          "internalType": "address",
          "name": "user",
          "type": "address"
        }
      ],
      "name": "UserRemoved",
      "type": "event"
    },
    {
      "inputs": [],
      "name": "admin",
      "outputs": [
        {
          "internalType": "address",
          "name": "",
          "type": "address"
        }
      ],
      "stateMutability": "view",
      "type": "function"
    },
    {
      "inputs": [],
      "name": "productCount",
      "outputs": [
        {
          "internalType": "uint256",
          "name": "",
          "type": "uint256"
        }
      ],
      "stateMutability": "view",
      "type": "function"
    },
    {
      "inputs": [
        {
          "internalType": "uint256",
          "name": "",
          "type": "uint256"
        }
      ],
      "name": "products",
      "outputs": [
        {
          "internalType": "string",
          "name": "",
          "type": "string"
        }
      ],
      "stateMutability": "view",
      "type": "function"
    },
    {
      "inputs": [
        {
          "internalType": "address",
          "name": "",
          "type": "address"
        }
      ],
      "name": "users",
      "outputs": [
        {
          "internalType": "bool",
          "name": "",
          "type": "bool"
        }
      ],
      "stateMutability": "view",
      "type": "function"
    },
    {
      "inputs": [
        {
          "internalType": "address",
          "name": "userAddress",
          "type": "address"
        }
      ],
      "name": "addUser",
      "outputs": [],
      "stateMutability": "nonpayable",
      "type": "function"
    },
    {
      "inputs": [
        {
          "internalType": "address",
          "name": "userAddress",
          "type": "address"
        }
      ],
      "name": "removeUser",
      "outputs": [],
      "stateMutability": "nonpayable",
      "type": "function"
    },
    {
      "inputs": [
        {
          "internalType": "address",
          "name": "userAddress",
          "type": "address"
        }
      ],
      "name": "isUser",
      "outputs": [
        {
          "internalType": "bool",
          "name": "",
          "type": "bool"
        }
      ],
      "stateMutability": "view",
      "type": "function"
    },
    {
      "inputs": [
        {
          "internalType": "string",
          "name": "productName",
          "type": "string"
        }
      ],
      "name": "addProduct",
      "outputs": [],
      "stateMutability": "nonpayable",
      "type": "function"
    },
    {
      "inputs": [
        {
          "internalType": "uint256",
          "name": "productId",
          "type": "uint256"
        }
      ],
      "name": "viewProduct",
      "outputs": [
        {
          "internalType": "string",
          "name": "",
          "type": "string"
        }
      ],
      "stateMutability": "view",
      "type": "function"
    }
  ],
  "bytecode": "0x608060405234801561001057600080fd5b50336000806101000a81548173ffffffffffffffffffffffffffffffffffffffff021916908373ffffffffffffffffffffffffffffffffffffffff1602179055506000600381905550610d53806100686000396000f3fe608060405234801561001057600080fd5b50600436106100935760003560e01c8063a87430ba11610066578063a87430ba14610130578063dfe00c5114610160578063e0f6ef871461017c578063eafd4bbd1461019a578063f851a440146101ca57610093565b80634209fff114610098578063421b2d8b146100c85780637acc0b20146100e45780639857518814610114575b600080fd5b6100b260048036038101906100ad919061082f565b6101e8565b6040516100bf9190610877565b60405180910390f35b6100e260048036038101906100dd919061082f565b61023e565b005b6100fe60048036038101906100f991906108c8565b61035d565b60405161010b919061098e565b60405180910390f35b61012e6004803603810190610129919061082f565b6103fd565b005b61014a6004803603810190610145919061082f565b61051d565b6040516101579190610877565b60405180910390f35b61017a60048036038101906101759190610ae5565b61053d565b005b61018461064b565b6040516101919190610b3d565b60405180910390f35b6101b460048036038101906101af91906108c8565b610651565b6040516101c1919061098e565b60405180910390f35b6101d26106f6565b6040516101df9190610b67565b60405180910390f35b6000600160008373ffffffffffffffffffffffffffffffffffffffff1673ffffffffffffffffffffffffffffffffffffffff16815260200190815260200160002060009054906101000a900460ff169050919050565b60008054906101000a900473ffffffffffffffffffffffffffffffffffffffff1673ffffffffffffffffffffffffffffffffffffffff163373ffffffffffffffffffffffffffffffffffffffff16146102cc576040517f08c379a00000000000000000000000000000000000000000000000000000000081526004016102c390610bf4565b60405180910390fd5b60018060008373ffffffffffffffffffffffffffffffffffffffff1673ffffffffffffffffffffffffffffffffffffffff16815260200190815260200160002060006101000a81548160ff0219169083151502179055507f19ef9a4877199f89440a26acb26895ec02ed86f2df1aeaa90dc18041b892f71f816040516103529190610b67565b60405180910390a150565b6002602052806000526040600020600091509050805461037c90610c43565b80601f01602080910402602001604051908101604052809291908181526020018280546103a890610c43565b80156103f55780601f106103ca576101008083540402835291602001916103f5565b820191906000526020600020905b8154815290600101906020018083116103d857829003601f168201915b505050505081565b60008054906101000a900473ffffffffffffffffffffffffffffffffffffffff1673ffffffffffffffffffffffffffffffffffffffff163373ffffffffffffffffffffffffffffffffffffffff161461048b576040517f08c379a000000000000000000000000000000000000000000000000000000000815260040161048290610bf4565b60405180910390fd5b6000600160008373ffffffffffffffffffffffffffffffffffffffff1673ffffffffffffffffffffffffffffffffffffffff16815260200190815260200160002060006101000a81548160ff0219169083151502179055507fe9dce8c992623ce791725b21e857e33248d1f190a25b5168313420eebdaae99d816040516105129190610b67565b60405180910390a150565b60016020528060005260406000206000915054906101000a900460ff1681565b60008054906101000a900473ffffffffffffffffffffffffffffffffffffffff1673ffffffffffffffffffffffffffffffffffffffff163373ffffffffffffffffffffffffffffffffffffffff16146105cb576040517f08c379a00000000000000000000000000000000000000000000000000000000081526004016105c290610bf4565b60405180910390fd5b600360008154809291906105de90610ca4565b919050555080600260006003548152602001908152602001600020908051906020019061060c92919061071a565b507f259101de1f87b04b9ee0332ce5e3cc508014004bf283424aead6cd8692f5cf9860035482604051610640929190610ced565b60405180910390a150565b60035481565b606060026000838152602001908152602001600020805461067190610c43565b80601f016020809104026020016040519081016040528092919081815260200182805461069d90610c43565b80156106ea5780601f106106bf576101008083540402835291602001916106ea565b820191906000526020600020905b8154815290600101906020018083116106cd57829003601f168201915b50505050509050919050565b60008054906101000a900473ffffffffffffffffffffffffffffffffffffffff1681565b82805461072690610c43565b90600052602060002090601f016020900481019282610748576000855561078f565b82601f1061076157805160ff191683800117855561078f565b8280016001018555821561078f579182015b8281111561078e578251825591602001919060010190610773565b5b50905061079c91906107a0565b5090565b5b808211156107b95760008160009055506001016107a1565b5090565b6000604051905090565b600080fd5b600080fd5b600073ffffffffffffffffffffffffffffffffffffffff82169050919050565b60006107fc826107d1565b9050919050565b61080c816107f1565b811461081757600080fd5b50565b60008135905061082981610803565b92915050565b600060208284031215610845576108446107c7565b5b60006108538482850161081a565b91505092915050565b60008115159050919050565b6108718161085c565b82525050565b600060208201905061088c6000830184610868565b92915050565b6000819050919050565b6108a581610892565b81146108b057600080fd5b50565b6000813590506108c28161089c565b92915050565b6000602082840312156108de576108dd6107c7565b5b60006108ec848285016108b3565b91505092915050565b600081519050919050565b600082825260208201905092915050565b60005b8381101561092f578082015181840152602081019050610914565b8381111561093e576000848401525b50505050565b6000601f19601f8301169050919050565b6000610960826108f5565b61096a8185610900565b935061097a818560208601610911565b61098381610944565b840191505092915050565b600060208201905081810360008301526109a88184610955565b905092915050565b600080fd5b600080fd5b7f4e487b7100000000000000000000000000000000000000000000000000000000600052604160045260246000fd5b6109f282610944565b810181811067ffffffffffffffff82111715610a1157610a106109ba565b5b80604052505050565b6000610a246107bd565b9050610a3082826109e9565b919050565b600067ffffffffffffffff821115610a5057610a4f6109ba565b5b610a5982610944565b9050602081019050919050565b82818337600083830152505050565b6000610a88610a8384610a35565b610a1a565b905082815260208101848484011115610aa457610aa36109b5565b5b610aaf848285610a66565b509392505050565b600082601f830112610acc57610acb6109b0565b5b8135610adc848260208601610a75565b91505092915050565b600060208284031215610afb57610afa6107c7565b5b600082013567ffffffffffffffff811115610b1957610b186107cc565b5b610b2584828501610ab7565b91505092915050565b610b3781610892565b82525050565b6000602082019050610b526000830184610b2e565b92915050565b610b61816107f1565b82525050565b6000602082019050610b7c6000830184610b58565b92915050565b7f4f6e6c792061646d696e2063616e20706572666f726d2074686973206163746960008201527f6f6e000000000000000000000000000000000000000000000000000000000000602082015250565b6000610bde602283610900565b9150610be982610b82565b604082019050919050565b60006020820190508181036000830152610c0d81610bd1565b9050919050565b7f4e487b7100000000000000000000000000000000000000000000000000000000600052602260045260246000fd5b60006002820490506001821680610c5b57607f821691505b60208210811415610c6f57610c6e610c14565b5b50919050565b7f4e487b7100000000000000000000000000000000000000000000000000000000600052601160045260246000fd5b6000610caf82610892565b91507fffffffffffffffffffffffffffffffffffffffffffffffffffffffffffffffff821415610ce257610ce1610c75565b5b600182019050919050565b6000604082019050610d026000830185610b2e565b8181036020830152610d148184610955565b9050939250505056fea26469706673582212205e2f1caacd7f7fb0d5545c5d91500a2efbf86f062d41895181e815b00b3599c364736f6c634300080c0033",
  "immutableReferences": {},
  "source": "// SPDX-License-Identifier: MIT\r\npragma solidity >=0.4.22 <0.9.0;\r\n\r\ncontract ProductVerification {\r\n    address public admin;\r\n    mapping(address => bool) public users;\r\n    mapping(uint => string) public products; // Store products by their ID\r\n    uint public productCount;\r\n\r\n    // Events to log actions\r\n    event ProductAdded(uint productId, string productName);\r\n    event UserAdded(address user);\r\n    event UserRemoved(address user);\r\n\r\n    constructor() {\r\n        admin = msg.sender; // Admin is the contract deployer\r\n        productCount = 0; // Initialize product count\r\n    }\r\n\r\n    // Modifier to restrict actions to the admin\r\n    modifier onlyAdmin() {\r\n        require(msg.sender == admin, \"Only admin can perform this action\");\r\n        _;\r\n    }\r\n\r\n    // Add a new user (only admin can add users)\r\n    function addUser(address userAddress) public onlyAdmin {\r\n        users[userAddress] = true;\r\n        emit UserAdded(userAddress);\r\n    }\r\n\r\n    // Remove a user (only admin can remove users)\r\n    function removeUser(address userAddress) public onlyAdmin {\r\n        users[userAddress] = false;\r\n        emit UserRemoved(userAddress);\r\n    }\r\n\r\n    // Check if the address is a registered user\r\n    function isUser(address userAddress) public view returns (bool) {\r\n        return users[userAddress];\r\n    }\r\n\r\n    // Admin can add products\r\n    function addProduct(string memory productName) public onlyAdmin {\r\n        productCount++;\r\n        products[productCount] = productName;\r\n        emit ProductAdded(productCount, productName);\r\n    }\r\n\r\n    // Admin can view products by ID\r\n    function viewProduct(uint productId) public view returns (string memory) {\r\n        return products[productId];\r\n    }\r\n}\r\n",
  "sourcePath": "C:\\Users\\m sai krishna\\Downloads\\okgood\\Fake-Product-Identification\\contracts\\Migrations.sol",
  "compiler": {
    "name": "solc",
    "version": "0.8.12+commit.f00d7308.Emscripten.clang"
  },
  "schemaVersion": "3.4.16",
  "updatedAt": "2025-01-27T06:35:07.197Z",
  "devdoc": {
    "kind": "dev",
    "methods": {},
    "version": 1
  },
  "userdoc": {
    "kind": "user",
    "methods": {},
    "version": 1
  }
}