{
  "contractName": "Product",
  "abi": [
    {
      "inputs": [],
      "name": "productCount",
      "outputs": [
        {
          "internalType": "uint256",
          "name": "",
          "type": "uint256"
        }
      ],
      "stateMutability": "view",
      "type": "function"
    },
    {
      "inputs": [
        {
          "internalType": "uint256",
          "name": "",
          "type": "uint256"
        }
      ],
      "name": "productItems",
      "outputs": [
        {
          "internalType": "uint256",
          "name": "productId",
          "type": "uint256"
        },
        {
          "internalType": "bytes32",
          "name": "productSN",
          "type": "bytes32"
        },
        {
          "internalType": "bytes32",
          "name": "productName",
          "type": "bytes32"
        },
        {
          "internalType": "bytes32",
          "name": "productBrand",
          "type": "bytes32"
        },
        {
          "internalType": "uint256",
          "name": "productPrice",
          "type": "uint256"
        },
        {
          "internalType": "bytes32",
          "name": "productStatus",
          "type": "bytes32"
        }
      ],
      "stateMutability": "view",
      "type": "function"
    },
    {
      "inputs": [
        {
          "internalType": "bytes32",
          "name": "",
          "type": "bytes32"
        }
      ],
      "name": "productMap",
      "outputs": [
        {
          "internalType": "uint256",
          "name": "",
          "type": "uint256"
        }
      ],
      "stateMutability": "view",
      "type": "function"
    },
    {
      "inputs": [
        {
          "internalType": "bytes32",
          "name": "",
          "type": "bytes32"
        }
      ],
      "name": "productsForSale",
      "outputs": [
        {
          "internalType": "bytes32",
          "name": "",
          "type": "bytes32"
        }
      ],
      "stateMutability": "view",
      "type": "function"
    },
    {
      "inputs": [
        {
          "internalType": "bytes32",
          "name": "",
          "type": "bytes32"
        }
      ],
      "name": "productsManufactured",
      "outputs": [
        {
          "internalType": "bytes32",
          "name": "",
          "type": "bytes32"
        }
      ],
      "stateMutability": "view",
      "type": "function"
    },
    {
      "inputs": [
        {
          "internalType": "bytes32",
          "name": "",
          "type": "bytes32"
        }
      ],
      "name": "productsSold",
      "outputs": [
        {
          "internalType": "bytes32",
          "name": "",
          "type": "bytes32"
        }
      ],
      "stateMutability": "view",
      "type": "function"
    },
    {
      "inputs": [
        {
          "internalType": "bytes32",
          "name": "",
          "type": "bytes32"
        },
        {
          "internalType": "uint256",
          "name": "",
          "type": "uint256"
        }
      ],
      "name": "productsWithConsumer",
      "outputs": [
        {
          "internalType": "bytes32",
          "name": "",
          "type": "bytes32"
        }
      ],
      "stateMutability": "view",
      "type": "function"
    },
    {
      "inputs": [
        {
          "internalType": "bytes32",
          "name": "",
          "type": "bytes32"
        },
        {
          "internalType": "uint256",
          "name": "",
          "type": "uint256"
        }
      ],
      "name": "productsWithSeller",
      "outputs": [
        {
          "internalType": "bytes32",
          "name": "",
          "type": "bytes32"
        }
      ],
      "stateMutability": "view",
      "type": "function"
    },
    {
      "inputs": [],
      "name": "sellerCount",
      "outputs": [
        {
          "internalType": "uint256",
          "name": "",
          "type": "uint256"
        }
      ],
      "stateMutability": "view",
      "type": "function"
    },
    {
      "inputs": [
        {
          "internalType": "uint256",
          "name": "",
          "type": "uint256"
        }
      ],
      "name": "sellers",
      "outputs": [
        {
          "internalType": "uint256",
          "name": "sellerId",
          "type": "uint256"
        },
        {
          "internalType": "bytes32",
          "name": "sellerName",
          "type": "bytes32"
        },
        {
          "internalType": "bytes32",
          "name": "sellerBrand",
          "type": "bytes32"
        },
        {
          "internalType": "bytes32",
          "name": "sellerCode",
          "type": "bytes32"
        },
        {
          "internalType": "uint256",
          "name": "sellerNum",
          "type": "uint256"
        },
        {
          "internalType": "bytes32",
          "name": "sellerManager",
          "type": "bytes32"
        },
        {
          "internalType": "bytes32",
          "name": "sellerAddress",
          "type": "bytes32"
        }
      ],
      "stateMutability": "view",
      "type": "function"
    },
    {
      "inputs": [
        {
          "internalType": "bytes32",
          "name": "",
          "type": "bytes32"
        },
        {
          "internalType": "uint256",
          "name": "",
          "type": "uint256"
        }
      ],
      "name": "sellersWithManufacturer",
      "outputs": [
        {
          "internalType": "bytes32",
          "name": "",
          "type": "bytes32"
        }
      ],
      "stateMutability": "view",
      "type": "function"
    },
    {
      "inputs": [
        {
          "internalType": "bytes32",
          "name": "_manufacturerId",
          "type": "bytes32"
        },
        {
          "internalType": "bytes32",
          "name": "_sellerName",
          "type": "bytes32"
        },
        {
          "internalType": "bytes32",
          "name": "_sellerBrand",
          "type": "bytes32"
        },
        {
          "internalType": "bytes32",
          "name": "_sellerCode",
          "type": "bytes32"
        },
        {
          "internalType": "uint256",
          "name": "_sellerNum",
          "type": "uint256"
        },
        {
          "internalType": "bytes32",
          "name": "_sellerManager",
          "type": "bytes32"
        },
        {
          "internalType": "bytes32",
          "name": "_sellerAddress",
          "type": "bytes32"
        }
      ],
      "name": "addSeller",
      "outputs": [],
      "stateMutability": "nonpayable",
      "type": "function"
    },
    {
      "inputs": [
        {
          "internalType": "bytes32",
          "name": "_sellerCode",
          "type": "bytes32"
        },
        {
          "internalType": "bytes32",
          "name": "_sellerName",
          "type": "bytes32"
        },
        {
          "internalType": "bytes32",
          "name": "_sellerBrand",
          "type": "bytes32"
        },
        {
          "internalType": "uint256",
          "name": "_sellerNum",
          "type": "uint256"
        },
        {
          "internalType": "bytes32",
          "name": "_sellerManager",
          "type": "bytes32"
        },
        {
          "internalType": "bytes32",
          "name": "_sellerAddress",
          "type": "bytes32"
        }
      ],
      "name": "updateSeller",
      "outputs": [],
      "stateMutability": "nonpayable",
      "type": "function"
    },
    {
      "inputs": [],
      "name": "viewSellers",
      "outputs": [
        {
          "internalType": "uint256[]",
          "name": "ids",
          "type": "uint256[]"
        },
        {
          "internalType": "bytes32[]",
          "name": "snames",
          "type": "bytes32[]"
        },
        {
          "internalType": "bytes32[]",
          "name": "sbrands",
          "type": "bytes32[]"
        },
        {
          "internalType": "bytes32[]",
          "name": "scodes",
          "type": "bytes32[]"
        },
        {
          "internalType": "uint256[]",
          "name": "snums",
          "type": "uint256[]"
        },
        {
          "internalType": "bytes32[]",
          "name": "smanagers",
          "type": "bytes32[]"
        },
        {
          "internalType": "bytes32[]",
          "name": "saddresses",
          "type": "bytes32[]"
        }
      ],
      "stateMutability": "view",
      "type": "function"
    },
    {
      "inputs": [
        {
          "internalType": "bytes32",
          "name": "_manufacturerID",
          "type": "bytes32"
        },
        {
          "internalType": "bytes32",
          "name": "_productName",
          "type": "bytes32"
        },
        {
          "internalType": "bytes32",
          "name": "_productSN",
          "type": "bytes32"
        },
        {
          "internalType": "bytes32",
          "name": "_productBrand",
          "type": "bytes32"
        },
        {
          "internalType": "uint256",
          "name": "_productPrice",
          "type": "uint256"
        }
      ],
      "name": "addProduct",
      "outputs": [],
      "stateMutability": "nonpayable",
      "type": "function"
    },
    {
      "inputs": [
        {
          "internalType": "bytes32",
          "name": "_productSN",
          "type": "bytes32"
        },
        {
          "internalType": "bytes32",
          "name": "_productName",
          "type": "bytes32"
        },
        {
          "internalType": "bytes32",
          "name": "_productBrand",
          "type": "bytes32"
        },
        {
          "internalType": "uint256",
          "name": "_productPrice",
          "type": "uint256"
        }
      ],
      "name": "updateProduct",
      "outputs": [],
      "stateMutability": "nonpayable",
      "type": "function"
    },
    {
      "inputs": [],
      "name": "viewProductItems",
      "outputs": [
        {
          "internalType": "uint256[]",
          "name": "pids",
          "type": "uint256[]"
        },
        {
          "internalType": "bytes32[]",
          "name": "pSNs",
          "type": "bytes32[]"
        },
        {
          "internalType": "bytes32[]",
          "name": "pnames",
          "type": "bytes32[]"
        },
        {
          "internalType": "bytes32[]",
          "name": "pbrands",
          "type": "bytes32[]"
        },
        {
          "internalType": "uint256[]",
          "name": "pprices",
          "type": "uint256[]"
        },
        {
          "internalType": "bytes32[]",
          "name": "pstatus",
          "type": "bytes32[]"
        }
      ],
      "stateMutability": "view",
      "type": "function"
    },
    {
      "inputs": [
        {
          "internalType": "bytes32",
          "name": "_productSN",
          "type": "bytes32"
        },
        {
          "internalType": "bytes32",
          "name": "_sellerCode",
          "type": "bytes32"
        }
      ],
      "name": "manufacturerSellProduct",
      "outputs": [],
      "stateMutability": "nonpayable",
      "type": "function"
    },
    {
      "inputs": [
        {
          "internalType": "bytes32",
          "name": "_productSN",
          "type": "bytes32"
        },
        {
          "internalType": "bytes32",
          "name": "_consumerCode",
          "type": "bytes32"
        }
      ],
      "name": "sellerSellProduct",
      "outputs": [],
      "stateMutability": "nonpayable",
      "type": "function"
    },
    {
      "inputs": [
        {
          "internalType": "bytes32",
          "name": "_sellerCode",
          "type": "bytes32"
        }
      ],
      "name": "queryProductsList",
      "outputs": [
        {
          "internalType": "uint256[]",
          "name": "pids",
          "type": "uint256[]"
        },
        {
          "internalType": "bytes32[]",
          "name": "pSNs",
          "type": "bytes32[]"
        },
        {
          "internalType": "bytes32[]",
          "name": "pnames",
          "type": "bytes32[]"
        },
        {
          "internalType": "bytes32[]",
          "name": "pbrands",
          "type": "bytes32[]"
        },
        {
          "internalType": "uint256[]",
          "name": "pprices",
          "type": "uint256[]"
        },
        {
          "internalType": "bytes32[]",
          "name": "pstatus",
          "type": "bytes32[]"
        }
      ],
      "stateMutability": "view",
      "type": "function"
    },
    {
      "inputs": [
        {
          "internalType": "bytes32",
          "name": "_manufacturerCode",
          "type": "bytes32"
        }
      ],
      "name": "querySellersList",
      "outputs": [
        {
          "internalType": "uint256[]",
          "name": "ids",
          "type": "uint256[]"
        },
        {
          "internalType": "bytes32[]",
          "name": "snames",
          "type": "bytes32[]"
        },
        {
          "internalType": "bytes32[]",
          "name": "sbrands",
          "type": "bytes32[]"
        },
        {
          "internalType": "bytes32[]",
          "name": "scodes",
          "type": "bytes32[]"
        },
        {
          "internalType": "uint256[]",
          "name": "snums",
          "type": "uint256[]"
        },
        {
          "internalType": "bytes32[]",
          "name": "smanagers",
          "type": "bytes32[]"
        },
        {
          "internalType": "bytes32[]",
          "name": "saddresses",
          "type": "bytes32[]"
        }
      ],
      "stateMutability": "view",
      "type": "function"
    },
    {
      "inputs": [
        {
          "internalType": "bytes32",
          "name": "_consumerCode",
          "type": "bytes32"
        }
      ],
      "name": "getPurchaseHistory",
      "outputs": [
        {
          "internalType": "bytes32[]",
          "name": "productSNs",
          "type": "bytes32[]"
        },
        {
          "internalType": "bytes32[]",
          "name": "sellerCodes",
          "type": "bytes32[]"
        },
        {
          "internalType": "bytes32[]",
          "name": "manufacturerCodes",
          "type": "bytes32[]"
        }
      ],
      "stateMutability": "view",
      "type": "function"
    },
    {
      "inputs": [
        {
          "internalType": "bytes32",
          "name": "_productSN",
          "type": "bytes32"
        },
        {
          "internalType": "bytes32",
          "name": "_consumerCode",
          "type": "bytes32"
        }
      ],
      "name": "verifyProduct",
      "outputs": [
        {
          "internalType": "bool",
          "name": "",
          "type": "bool"
        }
      ],
      "stateMutability": "view",
      "type": "function"
    }
  ],
  "bytecode": "0x608060405234801561001057600080fd5b506124ed806100206000396000f3fe608060405234801561001057600080fd5b506004361061014d5760003560e01c80639cd777dd116100c3578063caaf27511161007c578063caaf275114610400578063cd4f6a2e14610435578063cee26ed514610465578063e0f6ef871461049b578063e262113f146104b9578063e2d6e70a146104e95761014d565b80639cd777dd146103065780639ea4695d14610336578063a090f47c14610368578063abbb1aa814610398578063b0c7ad94146103b4578063c20805b4146103d05761014d565b8063344b5d5111610115578063344b5d511461021b5780634b9930011461024b57806359fa9b1f1461027b5780638577a7011461029957806392162bc4146102b55780639316bff0146102ea5761014d565b8063032f95e614610152578063100b6ba214610176578063130aa81f146101a65780631836bd4b146101dc5780631b3658c8146101ff575b600080fd5b61015a610505565b60405161016d9796959493929190611ca3565b60405180910390f35b610190600480360381019061018b9190611d74565b610860565b60405161019d9190611db0565b60405180910390f35b6101c060048036038101906101bb9190611d74565b610878565b6040516101d39796959493929190611ca3565b60405180910390f35b6101e4610c6a565b6040516101f696959493929190611dcb565b60405180910390f35b61021960048036038101906102149190611e82565b610f54565b005b61023560048036038101906102309190611f24565b611040565b6040516102429190611f7f565b60405180910390f35b61026560048036038101906102609190611f9a565b611060565b6040516102729190611fe9565b60405180910390f35b610283611091565b6040516102909190611db0565b60405180910390f35b6102b360048036038101906102ae9190611f24565b611097565b005b6102cf60048036038101906102ca9190611d74565b6110ed565b6040516102e196959493929190611dcb565b60405180910390f35b61030460048036038101906102ff9190612004565b611477565b005b610320600480360381019061031b9190611f9a565b61156b565b60405161032d9190611fe9565b60405180910390f35b610350600480360381019061034b9190611d74565b61159c565b60405161035f9392919061207f565b60405180910390f35b610382600480360381019061037d9190611d74565b61175e565b60405161038f9190611fe9565b60405180910390f35b6103b260048036038101906103ad91906120cb565b611776565b005b6103ce60048036038101906103c99190611f24565b6117c8565b005b6103ea60048036038101906103e59190611d74565b611904565b6040516103f79190611fe9565b60405180910390f35b61041a60048036038101906104159190612132565b61191c565b60405161042c9695949392919061215f565b60405180910390f35b61044f600480360381019061044a9190611d74565b611958565b60405161045c9190611fe9565b60405180910390f35b61047f600480360381019061047a9190612132565b611970565b60405161049297969594939291906121c0565b60405180910390f35b6104a36119b2565b6040516104b09190611db0565b60405180910390f35b6104d360048036038101906104ce9190611f9a565b6119b8565b6040516104e09190611fe9565b60405180910390f35b61050360048036038101906104fe919061222f565b6119e9565b005b60608060608060608060606000805490508067ffffffffffffffff8111156105305761052f6122bc565b5b60405190808252806020026020018201604052801561055e5781602001602082028036833780820191505090505b5097508067ffffffffffffffff81111561057b5761057a6122bc565b5b6040519080825280602002602001820160405280156105a95781602001602082028036833780820191505090505b5096508067ffffffffffffffff8111156105c6576105c56122bc565b5b6040519080825280602002602001820160405280156105f45781602001602082028036833780820191505090505b5095508067ffffffffffffffff811115610611576106106122bc565b5b60405190808252806020026020018201604052801561063f5781602001602082028036833780820191505090505b5094508067ffffffffffffffff81111561065c5761065b6122bc565b5b60405190808252806020026020018201604052801561068a5781602001602082028036833780820191505090505b5093508067ffffffffffffffff8111156106a7576106a66122bc565b5b6040519080825280602002602001820160405280156106d55781602001602082028036833780820191505090505b5092508067ffffffffffffffff8111156106f2576106f16122bc565b5b6040519080825280602002602001820160405280156107205781602001602082028036833780820191505090505b50915060005b8181101561085557600060026000838152602001908152602001600020905080600001548a838151811061075d5761075c6122eb565b5b6020026020010181815250508060010154898381518110610781576107806122eb565b5b60200260200101818152505080600201548883815181106107a5576107a46122eb565b5b60200260200101818152505080600301548783815181106107c9576107c86122eb565b5b60200260200101818152505080600401548683815181106107ed576107ec6122eb565b5b6020026020010181815250508060050154858381518110610811576108106122eb565b5b6020026020010181815250508060060154848381518110610835576108346122eb565b5b60200260200101818152505050808061084d90612349565b915050610726565b505090919293949596565b60046020528060005260406000206000915090505481565b60608060608060608060606000600a60008a81526020019081526020016000208054806020026020016040519081016040528092919081815260200182805480156108e257602002820191906000526020600020905b8154815260200190600101908083116108ce575b505050505090506000815190508067ffffffffffffffff811115610909576109086122bc565b5b6040519080825280602002602001820160405280156109375781602001602082028036833780820191505090505b5098508067ffffffffffffffff811115610954576109536122bc565b5b6040519080825280602002602001820160405280156109825781602001602082028036833780820191505090505b5097508067ffffffffffffffff81111561099f5761099e6122bc565b5b6040519080825280602002602001820160405280156109cd5781602001602082028036833780820191505090505b5096508067ffffffffffffffff8111156109ea576109e96122bc565b5b604051908082528060200260200182016040528015610a185781602001602082028036833780820191505090505b5095508067ffffffffffffffff811115610a3557610a346122bc565b5b604051908082528060200260200182016040528015610a635781602001602082028036833780820191505090505b5094508067ffffffffffffffff811115610a8057610a7f6122bc565b5b604051908082528060200260200182016040528015610aae5781602001602082028036833780820191505090505b5093508067ffffffffffffffff811115610acb57610aca6122bc565b5b604051908082528060200260200182016040528015610af95781602001602082028036833780820191505090505b50925060005b81811015610c5c576000838281518110610b1c57610b1b6122eb565b5b602002602001015190506000610b3182611a86565b9050600060026000838152602001908152602001600020905080600001548d8581518110610b6257610b616122eb565b5b60200260200101818152505080600101548c8581518110610b8657610b856122eb565b5b60200260200101818152505080600201548b8581518110610baa57610ba96122eb565b5b60200260200101818152505080600301548a8581518110610bce57610bcd6122eb565b5b6020026020010181815250508060040154898581518110610bf257610bf16122eb565b5b6020026020010181815250508060050154888581518110610c1657610c156122eb565b5b6020026020010181815250508060060154878581518110610c3a57610c396122eb565b5b6020026020010181815250505050508080610c5490612349565b915050610aff565b505050919395979092949650565b606080606080606080600060015490508067ffffffffffffffff811115610c9457610c936122bc565b5b604051908082528060200260200182016040528015610cc25781602001602082028036833780820191505090505b5096508067ffffffffffffffff811115610cdf57610cde6122bc565b5b604051908082528060200260200182016040528015610d0d5781602001602082028036833780820191505090505b5095508067ffffffffffffffff811115610d2a57610d296122bc565b5b604051908082528060200260200182016040528015610d585781602001602082028036833780820191505090505b5094508067ffffffffffffffff811115610d7557610d746122bc565b5b604051908082528060200260200182016040528015610da35781602001602082028036833780820191505090505b5093508067ffffffffffffffff811115610dc057610dbf6122bc565b5b604051908082528060200260200182016040528015610dee5781602001602082028036833780820191505090505b5092508067ffffffffffffffff811115610e0b57610e0a6122bc565b5b604051908082528060200260200182016040528015610e395781602001602082028036833780820191505090505b50915060005b81811015610f4a5760006003600083815260200190815260200160002090508060000154898381518110610e7657610e756122eb565b5b6020026020010181815250508060010154888381518110610e9a57610e996122eb565b5b6020026020010181815250508060020154878381518110610ebe57610ebd6122eb565b5b6020026020010181815250508060030154868381518110610ee257610ee16122eb565b5b6020026020010181815250508060040154858381518110610f0657610f056122eb565b5b6020026020010181815250508060050154848381518110610f2a57610f296122eb565b5b602002602001018181525050508080610f4290612349565b915050610e3f565b5050909192939495565b6040518060e001604052806000548152602001878152602001868152602001858152602001848152602001838152602001828152506002600080548152602001908152602001600020600082015181600001556020820151816001015560408201518160020155606082015181600301556080820151816004015560a0820151816005015560c08201518160060155905050600080815480929190610ff890612349565b9190505550600a600088815260200190815260200160002084908060018154018082558091505060019003906000526020600020016000909190919091505550505050505050565b600081600760008581526020019081526020016000205414905092915050565b6008602052816000526040600020818154811061107c57600080fd5b90600052602060002001600091509150505481565b60005481565b600860008281526020019081526020016000208290806001815401808255809150506001900390600052602060002001600090919091909150558060066000848152602001908152602001600020819055505050565b60608060608060608060006008600089815260200190815260200160002080548060200260200160405190810160405280929190818152602001828054801561115557602002820191906000526020600020905b815481526020019060010190808311611141575b505050505090506000815190508067ffffffffffffffff81111561117c5761117b6122bc565b5b6040519080825280602002602001820160405280156111aa5781602001602082028036833780820191505090505b5097508067ffffffffffffffff8111156111c7576111c66122bc565b5b6040519080825280602002602001820160405280156111f55781602001602082028036833780820191505090505b5096508067ffffffffffffffff811115611212576112116122bc565b5b6040519080825280602002602001820160405280156112405781602001602082028036833780820191505090505b5095508067ffffffffffffffff81111561125d5761125c6122bc565b5b60405190808252806020026020018201604052801561128b5781602001602082028036833780820191505090505b5094508067ffffffffffffffff8111156112a8576112a76122bc565b5b6040519080825280602002602001820160405280156112d65781602001602082028036833780820191505090505b5093508067ffffffffffffffff8111156112f3576112f26122bc565b5b6040519080825280602002602001820160405280156113215781602001602082028036833780820191505090505b50925060005b8181101561146b576000838281518110611344576113436122eb565b5b60200260200101519050600060046000838152602001908152602001600020549050600060036000838152602001908152602001600020905080600001548c8581518110611395576113946122eb565b5b60200260200101818152505080600101548b85815181106113b9576113b86122eb565b5b60200260200101818152505080600201548a85815181106113dd576113dc6122eb565b5b6020026020010181815250508060030154898581518110611401576114006122eb565b5b6020026020010181815250508060040154888581518110611425576114246122eb565b5b6020026020010181815250508060050154878581518110611449576114486122eb565b5b602002602001018181525050505050808061146390612349565b915050611327565b50505091939550919395565b6040518060c0016040528060015481526020018481526020018581526020018381526020018281526020017f417661696c61626c650000000000000000000000000000000000000000000000815250600360006001548152602001908152602001600020600082015181600001556020820151816001015560408201518160020155606082015181600301556080820151816004015560a0820151816005015590505060015460046000858152602001908152602001600020819055506001600081548092919061154790612349565b91905055508460056000858152602001908152602001600020819055505050505050565b6009602052816000526040600020818154811061158757600080fd5b90600052602060002001600091509150505481565b6060806060600960008581526020019081526020016000208054806020026020016040519081016040528092919081815260200182805480156115fe57602002820191906000526020600020905b8154815260200190600101908083116115ea575b50505050509250825167ffffffffffffffff8111156116205761161f6122bc565b5b60405190808252806020026020018201604052801561164e5781602001602082028036833780820191505090505b509150825167ffffffffffffffff81111561166c5761166b6122bc565b5b60405190808252806020026020018201604052801561169a5781602001602082028036833780820191505090505b50905060005b835181101561175657600660008583815181106116c0576116bf6122eb565b5b60200260200101518152602001908152602001600020548382815181106116ea576116e96122eb565b5b6020026020010181815250506005600085838151811061170d5761170c6122eb565b5b6020026020010151815260200190815260200160002054828281518110611737576117366122eb565b5b602002602001018181525050808061174e90612349565b9150506116a0565b509193909250565b60066020528060005260406000206000915090505481565b6000600460008681526020019081526020016000205490506000600360008381526020019081526020016000209050848160020181905550838160030181905550828160040181905550505050505050565b60006004600084815260200190815260200160002054905060006003600083815260200190815260200160002090507fb8cd97c047a11c48778228c38d769e1137628c57d635c6d0777138618f4dddb6816005015460405160200161182d91906123b3565b6040516020818303038152906040528051906020012014611883576040517f08c379a000000000000000000000000000000000000000000000000000000000815260040161187a9061242b565b60405180910390fd5b7f536f6c640000000000000000000000000000000000000000000000000000000081600501819055506009600084815260200190815260200160002084908060018154018082558091505060019003906000526020600020016000909190919091505582600760008681526020019081526020016000208190555050505050565b60056020528060005260406000206000915090505481565b60036020528060005260406000206000915090508060000154908060010154908060020154908060030154908060040154908060050154905086565b60076020528060005260406000206000915090505481565b60026020528060005260406000206000915090508060000154908060010154908060020154908060030154908060040154908060050154908060060154905087565b60015481565b600a60205281600052604060002081815481106119d457600080fd5b90600052602060002001600091509150505481565b60006119f487611a86565b905085600260008381526020019081526020016000206001018190555084600260008381526020019081526020016000206002018190555083600260008381526020019081526020016000206004018190555082600260008381526020019081526020016000206005018190555081600260008381526020019081526020016000206006018190555050505050505050565b600080600090505b600054811015611ad2578260026000838152602001908152602001600020600301541415611abf5780915050611b0e565b8080611aca90612349565b915050611a8e565b506040517f08c379a0000000000000000000000000000000000000000000000000000000008152600401611b0590612497565b60405180910390fd5b919050565b600081519050919050565b600082825260208201905092915050565b6000819050602082019050919050565b6000819050919050565b611b5281611b3f565b82525050565b6000611b648383611b49565b60208301905092915050565b6000602082019050919050565b6000611b8882611b13565b611b928185611b1e565b9350611b9d83611b2f565b8060005b83811015611bce578151611bb58882611b58565b9750611bc083611b70565b925050600181019050611ba1565b5085935050505092915050565b600081519050919050565b600082825260208201905092915050565b6000819050602082019050919050565b6000819050919050565b611c1a81611c07565b82525050565b6000611c2c8383611c11565b60208301905092915050565b6000602082019050919050565b6000611c5082611bdb565b611c5a8185611be6565b9350611c6583611bf7565b8060005b83811015611c96578151611c7d8882611c20565b9750611c8883611c38565b925050600181019050611c69565b5085935050505092915050565b600060e0820190508181036000830152611cbd818a611b7d565b90508181036020830152611cd18189611c45565b90508181036040830152611ce58188611c45565b90508181036060830152611cf98187611c45565b90508181036080830152611d0d8186611b7d565b905081810360a0830152611d218185611c45565b905081810360c0830152611d358184611c45565b905098975050505050505050565b600080fd5b611d5181611c07565b8114611d5c57600080fd5b50565b600081359050611d6e81611d48565b92915050565b600060208284031215611d8a57611d89611d43565b5b6000611d9884828501611d5f565b91505092915050565b611daa81611b3f565b82525050565b6000602082019050611dc56000830184611da1565b92915050565b600060c0820190508181036000830152611de58189611b7d565b90508181036020830152611df98188611c45565b90508181036040830152611e0d8187611c45565b90508181036060830152611e218186611c45565b90508181036080830152611e358185611b7d565b905081810360a0830152611e498184611c45565b9050979650505050505050565b611e5f81611b3f565b8114611e6a57600080fd5b50565b600081359050611e7c81611e56565b92915050565b600080600080600080600060e0888a031215611ea157611ea0611d43565b5b6000611eaf8a828b01611d5f565b9750506020611ec08a828b01611d5f565b9650506040611ed18a828b01611d5f565b9550506060611ee28a828b01611d5f565b9450506080611ef38a828b01611e6d565b93505060a0611f048a828b01611d5f565b92505060c0611f158a828b01611d5f565b91505092959891949750929550565b60008060408385031215611f3b57611f3a611d43565b5b6000611f4985828601611d5f565b9250506020611f5a85828601611d5f565b9150509250929050565b60008115159050919050565b611f7981611f64565b82525050565b6000602082019050611f946000830184611f70565b92915050565b60008060408385031215611fb157611fb0611d43565b5b6000611fbf85828601611d5f565b9250506020611fd085828601611e6d565b9150509250929050565b611fe381611c07565b82525050565b6000602082019050611ffe6000830184611fda565b92915050565b600080600080600060a086880312156120205761201f611d43565b5b600061202e88828901611d5f565b955050602061203f88828901611d5f565b945050604061205088828901611d5f565b935050606061206188828901611d5f565b925050608061207288828901611e6d565b9150509295509295909350565b600060608201905081810360008301526120998186611c45565b905081810360208301526120ad8185611c45565b905081810360408301526120c18184611c45565b9050949350505050565b600080600080608085870312156120e5576120e4611d43565b5b60006120f387828801611d5f565b945050602061210487828801611d5f565b935050604061211587828801611d5f565b925050606061212687828801611e6d565b91505092959194509250565b60006020828403121561214857612147611d43565b5b600061215684828501611e6d565b91505092915050565b600060c0820190506121746000830189611da1565b6121816020830188611fda565b61218e6040830187611fda565b61219b6060830186611fda565b6121a86080830185611da1565b6121b560a0830184611fda565b979650505050505050565b600060e0820190506121d5600083018a611da1565b6121e26020830189611fda565b6121ef6040830188611fda565b6121fc6060830187611fda565b6122096080830186611da1565b61221660a0830185611fda565b61222360c0830184611fda565b98975050505050505050565b60008060008060008060c0878903121561224c5761224b611d43565b5b600061225a89828a01611d5f565b965050602061226b89828a01611d5f565b955050604061227c89828a01611d5f565b945050606061228d89828a01611e6d565b935050608061229e89828a01611d5f565b92505060a06122af89828a01611d5f565b9150509295509295509295565b7f4e487b7100000000000000000000000000000000000000000000000000000000600052604160045260246000fd5b7f4e487b7100000000000000000000000000000000000000000000000000000000600052603260045260246000fd5b7f4e487b7100000000000000000000000000000000000000000000000000000000600052601160045260246000fd5b600061235482611b3f565b91507fffffffffffffffffffffffffffffffffffffffffffffffffffffffffffffffff8214156123875761238661231a565b5b600182019050919050565b6000819050919050565b6123ad6123a882611c07565b612392565b82525050565b60006123bf828461239c565b60208201915081905092915050565b600082825260208201905092915050565b7f50726f64756374206973206e6f7420617661696c61626c650000000000000000600082015250565b60006124156018836123ce565b9150612420826123df565b602082019050919050565b6000602082019050818103600083015261244481612408565b9050919050565b7f53656c6c6572206e6f7420666f756e6400000000000000000000000000000000600082015250565b60006124816010836123ce565b915061248c8261244b565b602082019050919050565b600060208201905081810360008301526124b081612474565b905091905056fea2646970667358221220f528c83e99b6c9e813332ec5d9fa55515adf9fb8838a75c98dbe20fc40a4957564736f6c634300080c0033",
  "immutableReferences": {},
  "source": "// SPDX-License-Identifier: MIT\r\npragma solidity ^0.8.12;\r\n\r\ncontract Product {\r\n\r\n    // State variables for tracking sellers and products\r\n    uint256 public sellerCount;\r\n    uint256 public productCount;\r\n\r\n    // Seller structure to hold seller details\r\n    struct Seller {\r\n        uint256 sellerId;\r\n        bytes32 sellerName;\r\n        bytes32 sellerBrand;\r\n        bytes32 sellerCode;\r\n        uint256 sellerNum;\r\n        bytes32 sellerManager;\r\n        bytes32 sellerAddress;\r\n    }\r\n\r\n    // Product structure to hold product details\r\n    struct ProductItem {\r\n        uint256 productId;\r\n        bytes32 productSN;\r\n        bytes32 productName;\r\n        bytes32 productBrand;\r\n        uint256 productPrice;\r\n        bytes32 productStatus;\r\n    }\r\n\r\n    // Mappings to store seller and product data\r\n    mapping(uint256 => Seller) public sellers;\r\n    mapping(uint256 => ProductItem) public productItems;\r\n    mapping(bytes32 => uint256) public productMap; // Maps product serial number to product ID\r\n    mapping(bytes32 => bytes32) public productsManufactured; // Maps product SN to manufacturer ID\r\n    mapping(bytes32 => bytes32) public productsForSale; // Maps product SN to seller code\r\n    mapping(bytes32 => bytes32) public productsSold; // Maps product SN to consumer code\r\n    mapping(bytes32 => bytes32[]) public productsWithSeller; // Stores products associated with a seller\r\n    mapping(bytes32 => bytes32[]) public productsWithConsumer; // Stores products associated with a consumer\r\n    mapping(bytes32 => bytes32[]) public sellersWithManufacturer; // Stores sellers associated with a manufacturer\r\n\r\n    // SELLER FUNCTIONS\r\n\r\n    // Function to add a new seller\r\n    function addSeller(\r\n        bytes32 _manufacturerId,\r\n        bytes32 _sellerName,\r\n        bytes32 _sellerBrand,\r\n        bytes32 _sellerCode,\r\n        uint256 _sellerNum,\r\n        bytes32 _sellerManager,\r\n        bytes32 _sellerAddress\r\n    ) public {\r\n        sellers[sellerCount] = Seller({\r\n            sellerId: sellerCount,\r\n            sellerName: _sellerName,\r\n            sellerBrand: _sellerBrand,\r\n            sellerCode: _sellerCode,\r\n            sellerNum: _sellerNum,\r\n            sellerManager: _sellerManager,\r\n            sellerAddress: _sellerAddress\r\n        });\r\n        sellerCount++;\r\n        sellersWithManufacturer[_manufacturerId].push(_sellerCode); // Associate seller with manufacturer\r\n    }\r\n\r\n    // Function to update an existing seller\r\n    function updateSeller(\r\n        bytes32 _sellerCode,\r\n        bytes32 _sellerName,\r\n        bytes32 _sellerBrand,\r\n        uint256 _sellerNum,\r\n        bytes32 _sellerManager,\r\n        bytes32 _sellerAddress\r\n    ) public {\r\n        uint256 sellerId = findSellerIdByCode(_sellerCode);\r\n        sellers[sellerId].sellerName = _sellerName;\r\n        sellers[sellerId].sellerBrand = _sellerBrand;\r\n        sellers[sellerId].sellerNum = _sellerNum;\r\n        sellers[sellerId].sellerManager = _sellerManager;\r\n        sellers[sellerId].sellerAddress = _sellerAddress;\r\n    }\r\n\r\n    // Function to view all sellers\r\n    function viewSellers() public view returns (\r\n        uint256[] memory ids,\r\n        bytes32[] memory snames,\r\n        bytes32[] memory sbrands,\r\n        bytes32[] memory scodes,\r\n        uint256[] memory snums,\r\n        bytes32[] memory smanagers,\r\n        bytes32[] memory saddresses\r\n    ) {\r\n        uint256 length = sellerCount;\r\n        ids = new uint256[](length);\r\n        snames = new bytes32[](length);\r\n        sbrands = new bytes32[](length);\r\n        scodes = new bytes32[](length);\r\n        snums = new uint256[](length);\r\n        smanagers = new bytes32[](length);\r\n        saddresses = new bytes32[](length);\r\n\r\n        for (uint256 i = 0; i < length; i++) {\r\n            Seller storage s = sellers[i];\r\n            ids[i] = s.sellerId;\r\n            snames[i] = s.sellerName;\r\n            sbrands[i] = s.sellerBrand;\r\n            scodes[i] = s.sellerCode;\r\n            snums[i] = s.sellerNum;\r\n            smanagers[i] = s.sellerManager;\r\n            saddresses[i] = s.sellerAddress;\r\n        }\r\n    }\r\n\r\n    // PRODUCT FUNCTIONS\r\n\r\n    // Function to add a new product\r\n    function addProduct(\r\n        bytes32 _manufacturerID,\r\n        bytes32 _productName,\r\n        bytes32 _productSN,\r\n        bytes32 _productBrand,\r\n        uint256 _productPrice\r\n    ) public {\r\n        productItems[productCount] = ProductItem({\r\n            productId: productCount,\r\n            productSN: _productSN,\r\n            productName: _productName,\r\n            productBrand: _productBrand,\r\n            productPrice: _productPrice,\r\n            productStatus: \"Available\"\r\n        });\r\n        productMap[_productSN] = productCount;\r\n        productCount++;\r\n        productsManufactured[_productSN] = _manufacturerID;\r\n    }\r\n\r\n    // Function to update an existing product\r\n    function updateProduct(\r\n        bytes32 _productSN,\r\n        bytes32 _productName,\r\n        bytes32 _productBrand,\r\n        uint256 _productPrice\r\n    ) public {\r\n        uint256 productId = productMap[_productSN];\r\n        ProductItem storage product = productItems[productId];\r\n        product.productName = _productName;\r\n        product.productBrand = _productBrand;\r\n        product.productPrice = _productPrice;\r\n    }\r\n\r\n    // Function to view all products\r\n    function viewProductItems() public view returns (\r\n        uint256[] memory pids,\r\n        bytes32[] memory pSNs,\r\n        bytes32[] memory pnames,\r\n        bytes32[] memory pbrands,\r\n        uint256[] memory pprices,\r\n        bytes32[] memory pstatus\r\n    ) {\r\n        uint256 length = productCount;\r\n        pids = new uint256[](length);\r\n        pSNs = new bytes32[](length);\r\n        pnames = new bytes32[](length);\r\n        pbrands = new bytes32[](length);\r\n        pprices = new uint256[](length);\r\n        pstatus = new bytes32[](length);\r\n\r\n        for (uint256 i = 0; i < length; i++) {\r\n            ProductItem storage p = productItems[i];\r\n            pids[i] = p.productId;\r\n            pSNs[i] = p.productSN;\r\n            pnames[i] = p.productName;\r\n            pbrands[i] = p.productBrand;\r\n            pprices[i] = p.productPrice;\r\n            pstatus[i] = p.productStatus;\r\n        }\r\n    }\r\n\r\n    // Function for manufacturer to sell a product\r\n    function manufacturerSellProduct(bytes32 _productSN, bytes32 _sellerCode) public {\r\n        productsWithSeller[_sellerCode].push(_productSN);\r\n        productsForSale[_productSN] = _sellerCode;\r\n    }\r\n\r\n    // Function for seller to sell a product to a consumer\r\n    function sellerSellProduct(bytes32 _productSN, bytes32 _consumerCode) public {\r\n        uint256 productId = productMap[_productSN];\r\n        ProductItem storage product = productItems[productId];\r\n\r\n        require(keccak256(abi.encodePacked(product.productStatus)) == keccak256(\"Available\"), \"Product is not available\");\r\n\r\n        product.productStatus = \"Sold\"; // Update product status to sold\r\n        productsWithConsumer[_consumerCode].push(_productSN);\r\n        productsSold[_productSN] = _consumerCode;\r\n    }\r\n\r\n    // Function to query products listed by a seller\r\n    function queryProductsList(bytes32 _sellerCode) public view returns (\r\n        uint256[] memory pids,\r\n        bytes32[] memory pSNs,\r\n        bytes32[] memory pnames,\r\n        bytes32[] memory pbrands,\r\n        uint256[] memory pprices,\r\n        bytes32[] memory pstatus\r\n    ) {\r\n        bytes32[] memory productSNs = productsWithSeller[_sellerCode];\r\n        uint256 length = productSNs.length;\r\n\r\n        pids = new uint256[](length);\r\n        pSNs = new bytes32[](length);\r\n        pnames = new bytes32[](length);\r\n        pbrands = new bytes32[](length);\r\n        pprices = new uint256[](length);\r\n        pstatus = new bytes32[](length);\r\n\r\n        for (uint256 i = 0; i < length; i++) {\r\n            bytes32 productSN = productSNs[i];\r\n            uint256 productId = productMap[productSN];\r\n            ProductItem storage product = productItems[productId];\r\n\r\n            pids[i] = product.productId;\r\n            pSNs[i] = product.productSN;\r\n            pnames[i] = product.productName;\r\n            pbrands[i] = product.productBrand;\r\n            pprices[i] = product.productPrice;\r\n            pstatus[i] = product.productStatus;\r\n        }\r\n    }\r\n\r\n    // Function to query seller list for a specific manufacturer\r\n    function querySellersList(bytes32 _manufacturerCode) public view returns (\r\n        uint256[] memory ids,\r\n        bytes32[] memory snames,\r\n        bytes32[] memory sbrands,\r\n        bytes32[] memory scodes,\r\n        uint256[] memory snums,\r\n        bytes32[] memory smanagers,\r\n        bytes32[] memory saddresses\r\n    ) {\r\n        bytes32[] memory sellerCodes = sellersWithManufacturer[_manufacturerCode];\r\n        uint256 length = sellerCodes.length;\r\n\r\n        ids = new uint256[](length);\r\n        snames = new bytes32[](length);\r\n        sbrands = new bytes32[](length);\r\n        scodes = new bytes32[](length);\r\n        snums = new uint256[](length);\r\n        smanagers = new bytes32[](length);\r\n        saddresses = new bytes32[](length);\r\n\r\n        for (uint256 i = 0; i < length; i++) {\r\n            bytes32 sellerCode = sellerCodes[i];\r\n            uint256 sellerId = findSellerIdByCode(sellerCode);\r\n            Seller storage s = sellers[sellerId];\r\n\r\n            ids[i] = s.sellerId;\r\n            snames[i] = s.sellerName;\r\n            sbrands[i] = s.sellerBrand;\r\n            scodes[i] = s.sellerCode;\r\n            snums[i] = s.sellerNum;\r\n            smanagers[i] = s.sellerManager;\r\n            saddresses[i] = s.sellerAddress;\r\n        }\r\n    }\r\n\r\n    // Helper function to find seller ID by seller code\r\n    function findSellerIdByCode(bytes32 _sellerCode) internal view returns (uint256) {\r\n        for (uint256 i = 0; i < sellerCount; i++) {\r\n            if (sellers[i].sellerCode == _sellerCode) {\r\n                return i;\r\n            }\r\n        }\r\n        revert(\"Seller not found\");\r\n    }\r\n\r\n    // Function to get purchase history of a consumer\r\n    function getPurchaseHistory(bytes32 _consumerCode) public view returns (bytes32[] memory productSNs, bytes32[] memory sellerCodes, bytes32[] memory manufacturerCodes) {\r\n        productSNs = productsWithConsumer[_consumerCode];\r\n        sellerCodes = new bytes32[](productSNs.length);\r\n        manufacturerCodes = new bytes32[](productSNs.length);\r\n\r\n        for (uint256 i = 0; i < productSNs.length; i++) {\r\n            sellerCodes[i] = productsForSale[productSNs[i]];\r\n            manufacturerCodes[i] = productsManufactured[productSNs[i]];\r\n        }\r\n\r\n        return (productSNs, sellerCodes, manufacturerCodes);\r\n    }\r\n\r\n    // Function to verify if a product was purchased by a consumer\r\n    function verifyProduct(bytes32 _productSN, bytes32 _consumerCode) public view returns (bool) {\r\n        return productsSold[_productSN] == _consumerCode;\r\n    }\r\n}\r\n",
  "sourcePath": "C:\\Users\\m sai krishna\\Downloads\\okgood\\Fake-Product-Identification\\contracts\\product.sol",
  "compiler": {
    "name": "solc",
    "version": "0.8.12+commit.f00d7308.Emscripten.clang"
  },
  "schemaVersion": "3.4.16",
  "updatedAt": "2025-01-27T06:35:07.217Z",
  "devdoc": {
    "kind": "dev",
    "methods": {},
    "version": 1
  },
  "userdoc": {
    "kind": "user",
    "methods": {},
    "version": 1
  }
}